{
  "address": "0xe7f1725E7734CE288F8367e1Bb143E90bb3F0512",
  "abi": [
    {
      "inputs": [
        {
          "internalType": "address",
          "name": "_NFTAddress",
          "type": "address"
        }
      ],
      "stateMutability": "nonpayable",
      "type": "constructor"
    },
    {
      "anonymous": false,
      "inputs": [
        {
          "indexed": false,
          "internalType": "address",
          "name": "from",
          "type": "address"
        },
        {
          "indexed": false,
          "internalType": "uint256",
          "name": "amount",
          "type": "uint256"
        },
        {
          "indexed": false,
          "internalType": "uint256",
          "name": "timestamp",
          "type": "uint256"
        }
      ],
      "name": "FundsRecieved",
      "type": "event"
    },
    {
      "anonymous": false,
      "inputs": [
        {
          "indexed": false,
          "internalType": "uint256",
          "name": "proposalId",
          "type": "uint256"
        },
        {
          "indexed": false,
          "internalType": "address",
          "name": "donationAddress",
          "type": "address"
        },
        {
          "indexed": false,
          "internalType": "uint256",
          "name": "amount",
          "type": "uint256"
        }
      ],
      "name": "ProposalApproved",
      "type": "event"
    },
    {
      "anonymous": false,
      "inputs": [
        {
          "indexed": false,
          "internalType": "uint256",
          "name": "proposalId",
          "type": "uint256"
        },
        {
          "indexed": false,
          "internalType": "address",
          "name": "proposer",
          "type": "address"
        },
        {
          "indexed": false,
          "internalType": "address",
          "name": "donationAddress",
          "type": "address"
        },
        {
          "indexed": false,
          "internalType": "string",
          "name": "donationReason",
          "type": "string"
        },
        {
          "indexed": false,
          "internalType": "uint256",
          "name": "amount",
          "type": "uint256"
        }
      ],
      "name": "ProposalCreated",
      "type": "event"
    },
    {
      "anonymous": false,
      "inputs": [
        {
          "indexed": false,
          "internalType": "uint256",
          "name": "proposalId",
          "type": "uint256"
        },
        {
          "indexed": false,
          "internalType": "address",
          "name": "donationAddress",
          "type": "address"
        },
        {
          "indexed": false,
          "internalType": "uint256",
          "name": "amount",
          "type": "uint256"
        }
      ],
      "name": "ProposalExecuted",
      "type": "event"
    },
    {
      "anonymous": false,
      "inputs": [
        {
          "indexed": false,
          "internalType": "uint256",
          "name": "proposalId",
          "type": "uint256"
        },
        {
          "indexed": false,
          "internalType": "address",
          "name": "donationAddress",
          "type": "address"
        },
        {
          "indexed": false,
          "internalType": "uint256",
          "name": "amount",
          "type": "uint256"
        }
      ],
      "name": "ProposalRejected",
      "type": "event"
    },
    {
      "anonymous": false,
      "inputs": [
        {
          "indexed": false,
          "internalType": "uint256",
          "name": "proposalId",
          "type": "uint256"
        },
        {
          "indexed": false,
          "internalType": "address",
          "name": "voter",
          "type": "address"
        },
        {
          "indexed": false,
          "internalType": "bool",
          "name": "vote",
          "type": "bool"
        }
      ],
      "name": "ProposalVoted",
      "type": "event"
    },
    {
      "stateMutability": "payable",
      "type": "fallback"
    },
    {
      "inputs": [],
      "name": "NFTAddress",
      "outputs": [
        {
          "internalType": "address",
          "name": "",
          "type": "address"
        }
      ],
      "stateMutability": "view",
      "type": "function"
    },
    {
      "inputs": [
        {
          "internalType": "bytes",
          "name": "",
          "type": "bytes"
        }
      ],
      "name": "checkUpkeep",
      "outputs": [
        {
          "internalType": "bool",
          "name": "upkeepNeeded",
          "type": "bool"
        },
        {
          "internalType": "bytes",
          "name": "",
          "type": "bytes"
        }
      ],
      "stateMutability": "nonpayable",
      "type": "function"
    },
    {
      "inputs": [],
      "name": "fundTheSmartContractInWEI",
      "outputs": [],
      "stateMutability": "payable",
      "type": "function"
    },
    {
      "inputs": [
        {
          "internalType": "uint256",
          "name": "_proposalId",
          "type": "uint256"
        }
      ],
      "name": "getProposal",
      "outputs": [
        {
          "internalType": "address",
          "name": "_donationAddress",
          "type": "address"
        },
        {
          "internalType": "string",
          "name": "donationReason",
          "type": "string"
        },
        {
          "internalType": "uint256",
          "name": "_amount",
          "type": "uint256"
        }
      ],
      "stateMutability": "view",
      "type": "function"
    },
    {
      "inputs": [],
      "name": "getProposalCount",
      "outputs": [
        {
          "internalType": "uint256",
          "name": "",
          "type": "uint256"
        }
      ],
      "stateMutability": "view",
      "type": "function"
    },
    {
      "inputs": [
        {
          "internalType": "uint256",
          "name": "_proposalId",
          "type": "uint256"
        }
      ],
      "name": "getProposalStatus",
      "outputs": [
        {
          "internalType": "uint256",
          "name": "_status",
          "type": "uint256"
        }
      ],
      "stateMutability": "nonpayable",
      "type": "function"
    },
    {
      "inputs": [
        {
          "internalType": "uint256",
          "name": "_proposalId",
          "type": "uint256"
        }
      ],
      "name": "getProposalVotes",
      "outputs": [
        {
          "internalType": "uint256",
          "name": "_yesVotes",
          "type": "uint256"
        },
        {
          "internalType": "uint256",
          "name": "_noVotes",
          "type": "uint256"
        }
      ],
      "stateMutability": "view",
      "type": "function"
    },
    {
      "inputs": [
        {
          "internalType": "bytes",
          "name": "",
          "type": "bytes"
        }
      ],
      "name": "performUpkeep",
      "outputs": [],
      "stateMutability": "nonpayable",
      "type": "function"
    },
    {
      "inputs": [
        {
          "internalType": "address",
          "name": "_donationAddress",
          "type": "address"
        },
        {
          "internalType": "string",
          "name": "donationReason",
          "type": "string"
        },
        {
          "internalType": "uint256",
          "name": "_amount",
          "type": "uint256"
        }
      ],
      "name": "proposeDonation",
      "outputs": [],
      "stateMutability": "nonpayable",
      "type": "function"
    },
    {
      "inputs": [
        {
          "internalType": "uint256",
          "name": "_proposalId",
          "type": "uint256"
        },
        {
          "internalType": "uint256",
          "name": "_vote",
          "type": "uint256"
        }
      ],
      "name": "voteForProposal",
      "outputs": [],
      "stateMutability": "nonpayable",
      "type": "function"
    },
    {
      "stateMutability": "payable",
      "type": "receive"
    }
  ],
  "transactionHash": "0x4c14f8da448fbd7b96f53a023c0bdf870e1eb885b7695288a8746062c5a9a003",
  "args": [
    "0x5FbDB2315678afecb367f032d93F642f64180aa3"
  ],
  "numDeployments": 1,
  "solcInputHash": "11d708f3918046aa86ad9d9a4ae77a27",
  "bytecode": "0x60a06040523480156200001157600080fd5b5060405162002783380380620027838339818101604052810190620000379190620000dc565b8073ffffffffffffffffffffffffffffffffffffffff1660808173ffffffffffffffffffffffffffffffffffffffff1681525050506200010e565b600080fd5b600073ffffffffffffffffffffffffffffffffffffffff82169050919050565b6000620000a48262000077565b9050919050565b620000b68162000097565b8114620000c257600080fd5b50565b600081519050620000d681620000ab565b92915050565b600060208284031215620000f557620000f462000072565b5b60006200010584828501620000c5565b91505092915050565b60805161264b62000138600039600081816103f80152818161041e0152610c45015261264b6000f3fe6080604052600436106100955760003560e01c80636e04ff0d116100595780636e04ff0d146101a6578063ab76022b146101e4578063c08cc02d146101ee578063c7f758a814610219578063f8f1212a14610258576100a4565b8063310c87cc146100ae5780633dfd1765146100d9578063401853b7146101025780634585e33b1461013f57806347c6614014610168576100a4565b366100a4576100a2610281565b005b6100ac610281565b005b3480156100ba57600080fd5b506100c36103f6565b6040516100d0919061148d565b60405180910390f35b3480156100e557600080fd5b5061010060048036038101906100fb9190611664565b61041a565b005b34801561010e57600080fd5b50610129600480360381019061012491906116d3565b610795565b604051610136919061170f565b60405180910390f35b34801561014b57600080fd5b50610166600480360381019061016191906117cb565b610996565b005b34801561017457600080fd5b5061018f600480360381019061018a91906116d3565b610a51565b60405161019d929190611814565b60405180910390f35b3480156101b257600080fd5b506101cd60048036038101906101c891906117cb565b610a8b565b6040516101db9291906118d7565b60405180910390f35b6101ec610281565b005b3480156101fa57600080fd5b50610203610b2d565b604051610210919061170f565b60405180910390f35b34801561022557600080fd5b50610240600480360381019061023b91906116d3565b610b3e565b60405161024f9392919061195c565b60405180910390f35b34801561026457600080fd5b5061027f600480360381019061027a919061199a565b610c41565b005b600034116102c4576040517f08c379a00000000000000000000000000000000000000000000000000000000081526004016102bb90611a26565b60405180910390fd5b6000803373ffffffffffffffffffffffffffffffffffffffff1673ffffffffffffffffffffffffffffffffffffffff16815260200190815260200160002060405180606001604052803373ffffffffffffffffffffffffffffffffffffffff16815260200134815260200142815250908060018154018082558091505060019003906000526020600020906003020160009091909190915060008201518160000160006101000a81548173ffffffffffffffffffffffffffffffffffffffff021916908373ffffffffffffffffffffffffffffffffffffffff160217905550602082015181600101556040820151816002015550507f9fc38749314f207df627a04d9e504eae3cba644dc9575c63d535da4533c83b4c3334426040516103ec93929190611a46565b60405180910390a1565b7f000000000000000000000000000000000000000000000000000000000000000081565b60007f000000000000000000000000000000000000000000000000000000000000000073ffffffffffffffffffffffffffffffffffffffff166370a08231336040518263ffffffff1660e01b8152600401610475919061148d565b602060405180830381865afa158015610492573d6000803e3d6000fd5b505050506040513d601f19601f820116820180604052508101906104b69190611a92565b116104f6576040517f08c379a00000000000000000000000000000000000000000000000000000000081526004016104ed90611b31565b60405180910390fd5b600073ffffffffffffffffffffffffffffffffffffffff168373ffffffffffffffffffffffffffffffffffffffff1603610565576040517f08c379a000000000000000000000000000000000000000000000000000000000815260040161055c90611b9d565b60405180910390fd5b600081116105a8576040517f08c379a000000000000000000000000000000000000000000000000000000000815260040161059f90611c2f565b60405180910390fd5b60008251116105ec576040517f08c379a00000000000000000000000000000000000000000000000000000000081526004016105e390611c9b565b60405180910390fd5b606482511115610631576040517f08c379a000000000000000000000000000000000000000000000000000000000815260040161062890611d2d565b60405180910390fd5b600061063d6001611004565b90506000600260008381526020019081526020016000209050818160000181905550338160010160006101000a81548173ffffffffffffffffffffffffffffffffffffffff021916908373ffffffffffffffffffffffffffffffffffffffff160217905550848160020160006101000a81548173ffffffffffffffffffffffffffffffffffffffff021916908373ffffffffffffffffffffffffffffffffffffffff160217905550838160030190816106f69190611f59565b508281600401819055506000816005018190555060008160060181905550600060038111156107285761072761202b565b5b816007018190555060784261073d9190612089565b816008018190555061074f6001611012565b7f35f722dea8b2845bb2ed781bf0b11f8e69e733bda70d447d6cd2d2c072fe8cde82338787876040516107869594939291906120bd565b60405180910390a15050505050565b60004260026000848152602001908152602001600020600801541015610977576002600083815260200190815260200160002060060154600260008481526020019081526020016000206005015411156108b0576000600260008481526020019081526020016000209050600160038111156108145761081361202b565b5b81600701819055507f2f0f51d2f12c71357e60d575d47e93e081dbaf32072245ab1e01540f0aadbf1a836002600086815260200190815260200160002060020160009054906101000a900473ffffffffffffffffffffffffffffffffffffffff16600260008781526020019081526020016000206004015460405161089b93929190612117565b60405180910390a18060070154915050610991565b6000600260008481526020019081526020016000209050600260038111156108db576108da61202b565b5b81600701819055507f53fda342a2eee565fc39b0e068489e494662382f8c5a3542c9ecba67a3588bb1836002600086815260200190815260200160002060020160009054906101000a900473ffffffffffffffffffffffffffffffffffffffff16600260008781526020019081526020016000206004015460405161096293929190612117565b60405180910390a18060070154915050610991565b600260008381526020019081526020016000206007015490505b919050565b60006109b060405180602001604052806000815250610a8b565b509050806109f3576040517f08c379a00000000000000000000000000000000000000000000000000000000081526004016109ea9061219a565b60405180910390fd5b60005b610a006001611004565b811015610a4c576000610a1282610795565b905060016003811115610a2857610a2761202b565b5b8103610a3857610a3782611028565b5b508080610a44906121ba565b9150506109f6565b505050565b6000806002600084815260200190815260200160002060050154600260008581526020019081526020016000206006015491509150915091565b600060606000805b610a9d6001611004565b811015610ae4576000610aaf82610795565b905060016003811115610ac557610ac461202b565b5b8103610ad057600192505b508080610adc906121ba565b915050610a93565b50610b246040518060400160405280600f81526020017f55706b656570206e65656465643a20000000000000000000000000000000000081525082611294565b80925050915091565b6000610b396001611004565b905090565b6000606060006002600085815260200190815260200160002060020160009054906101000a900473ffffffffffffffffffffffffffffffffffffffff16600260008681526020019081526020016000206003016002600087815260200190815260200160002060040154818054610bb490611d7c565b80601f0160208091040260200160405190810160405280929190818152602001828054610be090611d7c565b8015610c2d5780601f10610c0257610100808354040283529160200191610c2d565b820191906000526020600020905b815481529060010190602001808311610c1057829003601f168201915b505050505091509250925092509193909250565b60007f000000000000000000000000000000000000000000000000000000000000000073ffffffffffffffffffffffffffffffffffffffff166370a08231336040518263ffffffff1660e01b8152600401610c9c919061148d565b602060405180830381865afa158015610cb9573d6000803e3d6000fd5b505050506040513d601f19601f82011682018060405250810190610cdd9190611a92565b11610d1d576040517f08c379a0000000000000000000000000000000000000000000000000000000008152600401610d1490612274565b60405180910390fd5b610d276001611004565b8210610d68576040517f08c379a0000000000000000000000000000000000000000000000000000000008152600401610d5f906122e0565b60405180910390fd5b60006003811115610d7c57610d7b61202b565b5b600260008481526020019081526020016000206007015414610dd3576040517f08c379a0000000000000000000000000000000000000000000000000000000008152600401610dca9061234c565b60405180910390fd5b3373ffffffffffffffffffffffffffffffffffffffff166002600084815260200190815260200160002060010160009054906101000a900473ffffffffffffffffffffffffffffffffffffffff1673ffffffffffffffffffffffffffffffffffffffff1603610e77576040517f08c379a0000000000000000000000000000000000000000000000000000000008152600401610e6e906123de565b60405180910390fd5b42600260008481526020019081526020016000206008015411610ecf576040517f08c379a0000000000000000000000000000000000000000000000000000000008152600401610ec69061234c565b60405180910390fd5b610ef4336003600085815260200190815260200160002061133090919063ffffffff16565b15610f34576040517f08c379a0000000000000000000000000000000000000000000000000000000008152600401610f2b90612470565b60405180910390fd5b60008103610f6f576001600260008481526020019081526020016000206006016000828254610f639190612089565b92505081905550610f9e565b6001600260008481526020019081526020016000206005016000828254610f969190612089565b925050819055505b610fc3336003600085815260200190815260200160002061136090919063ffffffff16565b507f0def80f9a3b4c7a4251442658ccf516bf33ea4acaf31638fc6da8ebdb0f64c7282336001604051610ff893929190612490565b60405180910390a15050565b600081600001549050919050565b6001816000016000828254019250508190555050565b6110326001611004565b8110611073576040517f08c379a000000000000000000000000000000000000000000000000000000000815260040161106a906122e0565b60405180910390fd5b600160038111156110875761108661202b565b5b6002600083815260200190815260200160002060070154146110de576040517f08c379a00000000000000000000000000000000000000000000000000000000081526004016110d590612513565b60405180910390fd5b60006002600083815260200190815260200160002090506003808111156111085761110761202b565b5b816007018190555060006002600084815260200190815260200160002060020160009054906101000a900473ffffffffffffffffffffffffffffffffffffffff1673ffffffffffffffffffffffffffffffffffffffff16600260008581526020019081526020016000206004015460405161118290612564565b60006040518083038185875af1925050503d80600081146111bf576040519150601f19603f3d011682016040523d82523d6000602084013e6111c4565b606091505b5050905080611208576040517f08c379a00000000000000000000000000000000000000000000000000000000081526004016111ff906125c5565b60405180910390fd5b7f3b7c90df35b419337cff0919fe91849006607bb66c4373623f06f9d48c1ebb98836002600086815260200190815260200160002060020160009054906101000a900473ffffffffffffffffffffffffffffffffffffffff16600260008781526020019081526020016000206004015460405161128793929190612117565b60405180910390a1505050565b61132c82826040516024016112aa9291906125e5565b6040516020818303038152906040527fc3b55635000000000000000000000000000000000000000000000000000000007bffffffffffffffffffffffffffffffffffffffffffffffffffffffff19166020820180517bffffffffffffffffffffffffffffffffffffffffffffffffffffffff8381831617835250505050611390565b5050565b6000611358836000018373ffffffffffffffffffffffffffffffffffffffff1660001b6113b9565b905092915050565b6000611388836000018373ffffffffffffffffffffffffffffffffffffffff1660001b6113dc565b905092915050565b60008151905060006a636f6e736f6c652e6c6f679050602083016000808483855afa5050505050565b600080836001016000848152602001908152602001600020541415905092915050565b60006113e883836113b9565b611441578260000182908060018154018082558091505060019003906000526020600020016000909190919091505582600001805490508360010160008481526020019081526020016000208190555060019050611446565b600090505b92915050565b600073ffffffffffffffffffffffffffffffffffffffff82169050919050565b60006114778261144c565b9050919050565b6114878161146c565b82525050565b60006020820190506114a2600083018461147e565b92915050565b6000604051905090565b600080fd5b600080fd5b6114c58161146c565b81146114d057600080fd5b50565b6000813590506114e2816114bc565b92915050565b600080fd5b600080fd5b6000601f19601f8301169050919050565b7f4e487b7100000000000000000000000000000000000000000000000000000000600052604160045260246000fd5b61153b826114f2565b810181811067ffffffffffffffff8211171561155a57611559611503565b5b80604052505050565b600061156d6114a8565b90506115798282611532565b919050565b600067ffffffffffffffff82111561159957611598611503565b5b6115a2826114f2565b9050602081019050919050565b82818337600083830152505050565b60006115d16115cc8461157e565b611563565b9050828152602081018484840111156115ed576115ec6114ed565b5b6115f88482856115af565b509392505050565b600082601f830112611615576116146114e8565b5b81356116258482602086016115be565b91505092915050565b6000819050919050565b6116418161162e565b811461164c57600080fd5b50565b60008135905061165e81611638565b92915050565b60008060006060848603121561167d5761167c6114b2565b5b600061168b868287016114d3565b935050602084013567ffffffffffffffff8111156116ac576116ab6114b7565b5b6116b886828701611600565b92505060406116c98682870161164f565b9150509250925092565b6000602082840312156116e9576116e86114b2565b5b60006116f78482850161164f565b91505092915050565b6117098161162e565b82525050565b60006020820190506117246000830184611700565b92915050565b600067ffffffffffffffff82111561174557611744611503565b5b61174e826114f2565b9050602081019050919050565b600061176e6117698461172a565b611563565b90508281526020810184848401111561178a576117896114ed565b5b6117958482856115af565b509392505050565b600082601f8301126117b2576117b16114e8565b5b81356117c284826020860161175b565b91505092915050565b6000602082840312156117e1576117e06114b2565b5b600082013567ffffffffffffffff8111156117ff576117fe6114b7565b5b61180b8482850161179d565b91505092915050565b60006040820190506118296000830185611700565b6118366020830184611700565b9392505050565b60008115159050919050565b6118528161183d565b82525050565b600081519050919050565b600082825260208201905092915050565b60005b83811015611892578082015181840152602081019050611877565b60008484015250505050565b60006118a982611858565b6118b38185611863565b93506118c3818560208601611874565b6118cc816114f2565b840191505092915050565b60006040820190506118ec6000830185611849565b81810360208301526118fe818461189e565b90509392505050565b600081519050919050565b600082825260208201905092915050565b600061192e82611907565b6119388185611912565b9350611948818560208601611874565b611951816114f2565b840191505092915050565b6000606082019050611971600083018661147e565b81810360208301526119838185611923565b90506119926040830184611700565b949350505050565b600080604083850312156119b1576119b06114b2565b5b60006119bf8582860161164f565b92505060206119d08582860161164f565b9150509250929050565b7f596f75206d7573742073656e6420736f6d652045746865720000000000000000600082015250565b6000611a10601883611912565b9150611a1b826119da565b602082019050919050565b60006020820190508181036000830152611a3f81611a03565b9050919050565b6000606082019050611a5b600083018661147e565b611a686020830185611700565b611a756040830184611700565b949350505050565b600081519050611a8c81611638565b92915050565b600060208284031215611aa857611aa76114b2565b5b6000611ab684828501611a7d565b91505092915050565b7f596f75206d757374206f776e20616e20616363657074616e6365204e4654207460008201527f6f2070726f706f7365206120646f6e6174696f6e000000000000000000000000602082015250565b6000611b1b603483611912565b9150611b2682611abf565b604082019050919050565b60006020820190508181036000830152611b4a81611b0e565b9050919050565b7f446f6e6174696f6e20616464726573732063616e6e6f74206265203000000000600082015250565b6000611b87601c83611912565b9150611b9282611b51565b602082019050919050565b60006020820190508181036000830152611bb681611b7a565b9050919050565b7f446f6e6174696f6e20616d6f756e74206d75737420626520677265617465722060008201527f7468616e20300000000000000000000000000000000000000000000000000000602082015250565b6000611c19602683611912565b9150611c2482611bbd565b604082019050919050565b60006020820190508181036000830152611c4881611c0c565b9050919050565b7f446f6e6174696f6e20726561736f6e2063616e6e6f7420626520656d70747900600082015250565b6000611c85601f83611912565b9150611c9082611c4f565b602082019050919050565b60006020820190508181036000830152611cb481611c78565b9050919050565b7f446f6e6174696f6e20726561736f6e2063616e6e6f74206265206c6f6e67657260008201527f207468616e203130302063686172616374657273000000000000000000000000602082015250565b6000611d17603483611912565b9150611d2282611cbb565b604082019050919050565b60006020820190508181036000830152611d4681611d0a565b9050919050565b7f4e487b7100000000000000000000000000000000000000000000000000000000600052602260045260246000fd5b60006002820490506001821680611d9457607f821691505b602082108103611da757611da6611d4d565b5b50919050565b60008190508160005260206000209050919050565b60006020601f8301049050919050565b600082821b905092915050565b600060088302611e0f7fffffffffffffffffffffffffffffffffffffffffffffffffffffffffffffffff82611dd2565b611e198683611dd2565b95508019841693508086168417925050509392505050565b6000819050919050565b6000611e56611e51611e4c8461162e565b611e31565b61162e565b9050919050565b6000819050919050565b611e7083611e3b565b611e84611e7c82611e5d565b848454611ddf565b825550505050565b600090565b611e99611e8c565b611ea4818484611e67565b505050565b5b81811015611ec857611ebd600082611e91565b600181019050611eaa565b5050565b601f821115611f0d57611ede81611dad565b611ee784611dc2565b81016020851015611ef6578190505b611f0a611f0285611dc2565b830182611ea9565b50505b505050565b600082821c905092915050565b6000611f3060001984600802611f12565b1980831691505092915050565b6000611f498383611f1f565b9150826002028217905092915050565b611f6282611907565b67ffffffffffffffff811115611f7b57611f7a611503565b5b611f858254611d7c565b611f90828285611ecc565b600060209050601f831160018114611fc35760008415611fb1578287015190505b611fbb8582611f3d565b865550612023565b601f198416611fd186611dad565b60005b82811015611ff957848901518255600182019150602085019450602081019050611fd4565b868310156120165784890151612012601f891682611f1f565b8355505b6001600288020188555050505b505050505050565b7f4e487b7100000000000000000000000000000000000000000000000000000000600052602160045260246000fd5b7f4e487b7100000000000000000000000000000000000000000000000000000000600052601160045260246000fd5b60006120948261162e565b915061209f8361162e565b92508282019050808211156120b7576120b661205a565b5b92915050565b600060a0820190506120d26000830188611700565b6120df602083018761147e565b6120ec604083018661147e565b81810360608301526120fe8185611923565b905061210d6080830184611700565b9695505050505050565b600060608201905061212c6000830186611700565b612139602083018561147e565b6121466040830184611700565b949350505050565b7f4e6f2075706b656570206e656564656400000000000000000000000000000000600082015250565b6000612184601083611912565b915061218f8261214e565b602082019050919050565b600060208201905081810360008301526121b381612177565b9050919050565b60006121c58261162e565b91507fffffffffffffffffffffffffffffffffffffffffffffffffffffffffffffffff82036121f7576121f661205a565b5b600182019050919050565b7f596f75206d757374206f776e20616e20616363657074616e6365204e4654207460008201527f6f20766f746520666f7220612070726f706f73616c0000000000000000000000602082015250565b600061225e603583611912565b915061226982612202565b604082019050919050565b6000602082019050818103600083015261228d81612251565b9050919050565b7f50726f706f73616c20646f6573206e6f74206578697374000000000000000000600082015250565b60006122ca601783611912565b91506122d582612294565b602082019050919050565b600060208201905081810360008301526122f9816122bd565b9050919050565b7f50726f706f73616c20766f74696e6720656e6465640000000000000000000000600082015250565b6000612336601583611912565b915061234182612300565b602082019050919050565b6000602082019050818103600083015261236581612329565b9050919050565b7f50726f706f7365722063616e6e6f7420766f746520666f72207468656972206f60008201527f776e2070726f706f73616c000000000000000000000000000000000000000000602082015250565b60006123c8602b83611912565b91506123d38261236c565b604082019050919050565b600060208201905081810360008301526123f7816123bb565b9050919050565b7f596f75206861766520616c726561647920766f74656420666f7220746869732060008201527f70726f706f73616c000000000000000000000000000000000000000000000000602082015250565b600061245a602883611912565b9150612465826123fe565b604082019050919050565b600060208201905081810360008301526124898161244d565b9050919050565b60006060820190506124a56000830186611700565b6124b2602083018561147e565b6124bf6040830184611849565b949350505050565b7f50726f706f73616c206973206e6f7420617070726f7665640000000000000000600082015250565b60006124fd601883611912565b9150612508826124c7565b602082019050919050565b6000602082019050818103600083015261252c816124f0565b9050919050565b600081905092915050565b50565b600061254e600083612533565b91506125598261253e565b600082019050919050565b600061256f82612541565b9150819050919050565b7f5472616e73666572206661696c65642e00000000000000000000000000000000600082015250565b60006125af601083611912565b91506125ba82612579565b602082019050919050565b600060208201905081810360008301526125de816125a2565b9050919050565b600060408201905081810360008301526125ff8185611923565b905061260e6020830184611849565b939250505056fea26469706673582212209fa3e43834ad5266f44b5cb5e4bfab9a0ebc52a21c6ce8a15684ae938561a26664736f6c63430008110033",
  "devdoc": {
    "kind": "dev",
    "methods": {},
    "version": 1
  },
  "userdoc": {
    "kind": "user",
    "methods": {},
    "version": 1
  },
  "storageLayout": {
    "storage": [
      {
        "astId": 956,
        "contract": "contracts/Donator.sol:Donator",
        "label": "recievedFunds",
        "offset": 0,
        "slot": "0",
        "type": "t_mapping(t_address,t_array(t_struct(RecievedFunds)950_storage)dyn_storage)"
      },
      {
        "astId": 959,
        "contract": "contracts/Donator.sol:Donator",
        "label": "proposalCounter",
        "offset": 0,
        "slot": "1",
        "type": "t_struct(Counter)179_storage"
      },
      {
        "astId": 983,
        "contract": "contracts/Donator.sol:Donator",
        "label": "proposals",
        "offset": 0,
        "slot": "2",
        "type": "t_mapping(t_uint256,t_struct(Proposal)978_storage)"
      },
      {
        "astId": 988,
        "contract": "contracts/Donator.sol:Donator",
        "label": "proposalIdToVoters",
        "offset": 0,
        "slot": "3",
        "type": "t_mapping(t_uint256,t_struct(AddressSet)585_storage)"
      }
    ],
    "types": {
      "t_address": {
        "encoding": "inplace",
        "label": "address",
        "numberOfBytes": "20"
      },
      "t_array(t_bytes32)dyn_storage": {
        "base": "t_bytes32",
        "encoding": "dynamic_array",
        "label": "bytes32[]",
        "numberOfBytes": "32"
      },
      "t_array(t_struct(RecievedFunds)950_storage)dyn_storage": {
        "base": "t_struct(RecievedFunds)950_storage",
        "encoding": "dynamic_array",
        "label": "struct Donator.RecievedFunds[]",
        "numberOfBytes": "32"
      },
      "t_bytes32": {
        "encoding": "inplace",
        "label": "bytes32",
        "numberOfBytes": "32"
      },
      "t_mapping(t_address,t_array(t_struct(RecievedFunds)950_storage)dyn_storage)": {
        "encoding": "mapping",
        "key": "t_address",
        "label": "mapping(address => struct Donator.RecievedFunds[])",
        "numberOfBytes": "32",
        "value": "t_array(t_struct(RecievedFunds)950_storage)dyn_storage"
      },
      "t_mapping(t_bytes32,t_uint256)": {
        "encoding": "mapping",
        "key": "t_bytes32",
        "label": "mapping(bytes32 => uint256)",
        "numberOfBytes": "32",
        "value": "t_uint256"
      },
      "t_mapping(t_uint256,t_struct(AddressSet)585_storage)": {
        "encoding": "mapping",
        "key": "t_uint256",
        "label": "mapping(uint256 => struct EnumerableSet.AddressSet)",
        "numberOfBytes": "32",
        "value": "t_struct(AddressSet)585_storage"
      },
      "t_mapping(t_uint256,t_struct(Proposal)978_storage)": {
        "encoding": "mapping",
        "key": "t_uint256",
        "label": "mapping(uint256 => struct Donator.Proposal)",
        "numberOfBytes": "32",
        "value": "t_struct(Proposal)978_storage"
      },
      "t_string_storage": {
        "encoding": "bytes",
        "label": "string",
        "numberOfBytes": "32"
      },
      "t_struct(AddressSet)585_storage": {
        "encoding": "inplace",
        "label": "struct EnumerableSet.AddressSet",
        "members": [
          {
            "astId": 584,
            "contract": "contracts/Donator.sol:Donator",
            "label": "_inner",
            "offset": 0,
            "slot": "0",
            "type": "t_struct(Set)270_storage"
          }
        ],
        "numberOfBytes": "64"
      },
      "t_struct(Counter)179_storage": {
        "encoding": "inplace",
        "label": "struct Counters.Counter",
        "members": [
          {
            "astId": 178,
            "contract": "contracts/Donator.sol:Donator",
            "label": "_value",
            "offset": 0,
            "slot": "0",
            "type": "t_uint256"
          }
        ],
        "numberOfBytes": "32"
      },
      "t_struct(Proposal)978_storage": {
        "encoding": "inplace",
        "label": "struct Donator.Proposal",
        "members": [
          {
            "astId": 961,
            "contract": "contracts/Donator.sol:Donator",
            "label": "id",
            "offset": 0,
            "slot": "0",
            "type": "t_uint256"
          },
          {
            "astId": 963,
            "contract": "contracts/Donator.sol:Donator",
            "label": "proposer",
            "offset": 0,
            "slot": "1",
            "type": "t_address"
          },
          {
            "astId": 965,
            "contract": "contracts/Donator.sol:Donator",
            "label": "donationAddress",
            "offset": 0,
            "slot": "2",
            "type": "t_address"
          },
          {
            "astId": 967,
            "contract": "contracts/Donator.sol:Donator",
            "label": "donationReason",
            "offset": 0,
            "slot": "3",
            "type": "t_string_storage"
          },
          {
            "astId": 969,
            "contract": "contracts/Donator.sol:Donator",
            "label": "amount",
            "offset": 0,
            "slot": "4",
            "type": "t_uint256"
          },
          {
            "astId": 971,
            "contract": "contracts/Donator.sol:Donator",
            "label": "yesVotes",
            "offset": 0,
            "slot": "5",
            "type": "t_uint256"
          },
          {
            "astId": 973,
            "contract": "contracts/Donator.sol:Donator",
            "label": "noVotes",
            "offset": 0,
            "slot": "6",
            "type": "t_uint256"
          },
          {
            "astId": 975,
            "contract": "contracts/Donator.sol:Donator",
            "label": "status",
            "offset": 0,
            "slot": "7",
            "type": "t_uint256"
          },
          {
            "astId": 977,
            "contract": "contracts/Donator.sol:Donator",
            "label": "votingEndTime",
            "offset": 0,
            "slot": "8",
            "type": "t_uint256"
          }
        ],
        "numberOfBytes": "288"
      },
      "t_struct(RecievedFunds)950_storage": {
        "encoding": "inplace",
        "label": "struct Donator.RecievedFunds",
        "members": [
          {
            "astId": 945,
            "contract": "contracts/Donator.sol:Donator",
            "label": "from",
            "offset": 0,
            "slot": "0",
            "type": "t_address"
          },
          {
            "astId": 947,
            "contract": "contracts/Donator.sol:Donator",
            "label": "amount",
            "offset": 0,
            "slot": "1",
            "type": "t_uint256"
          },
          {
            "astId": 949,
            "contract": "contracts/Donator.sol:Donator",
            "label": "timestamp",
            "offset": 0,
            "slot": "2",
            "type": "t_uint256"
          }
        ],
        "numberOfBytes": "96"
      },
      "t_struct(Set)270_storage": {
        "encoding": "inplace",
        "label": "struct EnumerableSet.Set",
        "members": [
          {
            "astId": 265,
            "contract": "contracts/Donator.sol:Donator",
            "label": "_values",
            "offset": 0,
            "slot": "0",
            "type": "t_array(t_bytes32)dyn_storage"
          },
          {
            "astId": 269,
            "contract": "contracts/Donator.sol:Donator",
            "label": "_indexes",
            "offset": 0,
            "slot": "1",
            "type": "t_mapping(t_bytes32,t_uint256)"
          }
        ],
        "numberOfBytes": "64"
      },
      "t_uint256": {
        "encoding": "inplace",
        "label": "uint256",
        "numberOfBytes": "32"
      }
    }
  }
}